S012000070757A7A6C652D626F782E73726563F2
S113000057C08BC070C06FC06EC06DC06CC06BC079
S11300106AC069C068C067C066C065C064C063C0A8
S113002062C061C060C005010902A1010901A1000B
S1130030050919012903150025019503750181029C
S113004095017505810305010930093109381581C8
S1130050257F750895038106C0C0090222000101AD
S113006000A00A09040000010300000009210101A5
S11300700001223400070581030800641201100105
S113008000000008C016E8030001010200010C038F
S11300904D006F0075007300650012036F0062006D
S11300A06400650076002E006100740004030904F6
S11300B011241FBECFE5D4E0DEBFCDBF10E0A0E623
S11300C0B0E0EEEBF9E002C005900D92A236B10764
S11300D0D9F720E0A2E6B0E001C01D92AA3AB20727
S11300E0E1F7CFD26AC48CCFA82FB92F80E090E07B
S11300F041E050EA609530E009C02D918227979540
S1130100879510F084279527305EC8F36F5FA8F3B6
S11301100895EADF8D939D930895CF93CFB7CF933E
S1130120C395829BE9F7829B09C0829B07C0829B8F
S113013005C0829B03C0829B01C0A3C0DF93C09112
S11301408D00DD27CC56DF4F829B02C0DF91EBCFC1
S11301502F930F931F9300B32FEF02FB20F94F93BC
S11301603F9310B34FEF012702FB21F93BE031C06D
S11301704E7F012F10B3216028C0102F4D7F2260C5
S1130180000000B329C04B7F2460012F000010B38E
S11301902BC010B3477F28602AC04F7E00B3206174
S11301A02CC04F7D10B320622FC04F7B00B320645E
S11301B032C0422700B349934FEF0000102712FBCF
S11301C020F910B31C70C9F1297F91F2012702FBB9
S11301D021F900B3237F89F2315058F1102712FB23
S11301E022F910B3277E79F2012702FB23F92F7C31
S11301F081F200B3102712FB24F92F7971F200C0A9
S113020010B3012702FB25F92F7359F200C000B384
S1130210102712FB26F9223040F200C010B3012748
S113022002FB27F9243028F64F77206810B300002A
S1130230F9CF10E41ABF002719C03B503195C31BF6
S1130240D04010E41ABF0881033CF9F00B34E9F004
S113025020918B001981110F1213EDCF4A81441F95
S1130260093641F10D3211F0013E29F70093920055
S11302703F914F911F910F912F91DF91CAB7C6FD06
S11302804FCFCF91CFBFCF911895209192002223C9
S113029079F310919000112369F534306AF13093A9
S11302A0900020938C0010918D003BE0311B309323
S11302B08D0022C0009190000130E4F40AE54F70F3
S11302C049F43091610034FD19C000936100C4E722
S11302D0D0E018C030917F0034FD10C000937F003F
S11302E0C0E8D0E00FC02795A8F45150A9F4220F1C
S11302F00000F9CF4AE503C042ED01C0432FC4E139
S1130300D0E032E011B31C60929A11BB02B320E436
S11303101CE05F93012756E002BB279520F451505F
S113032021F4220FF9CF012756E000003B5A02BB0B
S1130330D0F2279528F4515029F4220F0000F9CF68
S1130340012756E0279502BB20F4515021F4220FD7
S1130350F9CF012756E02991332302BB21F6037F0D
S113036010919100110FC651D04002BB11F01093AF
S11303708B0010E41ABF046011B3137F402F437F36
S11303805F9100C000C002BB11BB42BB71CF88E4C7
S113039080B9089516BE94EA96BF06B607FEFDCF4F
S11303A091B1987F983079F483B984E886BF06B612
S11303B007FEFDCF91B1987F983139F081E09034F8
S11303C029F480E0089581E0089580E0089583B9D8
S11303D084E886BF06B607FEFDCF91B1987F81E021
S11303E0983209F480E0089584EC86BF06B607FECF
S11303F0FDCF83B1089584E886BF06B607FEFDCF1E
S113040083B10895CF93DF93C62FD42FC3DF811117
S11304100BC08C2FDCDF811109C08D2FD8DF811137
S113042007C094E996BF05C081E003C081E001C024
S113043081E0DF91CF910895AF92BF92DF92EF9266
S1130440FF920F931F93CF93DF93182F062F5A0118
S1130450E901A0DF81111DC0802FB9DF812F8160E8
S113046099DFD82E811118C08E010150110949F06D
S1130470E5017501E00EF11EB7DF8993EC16FD0668
S1130480D9F7E501C00FD11FB6DF888384E986BFA1
S113049005C0DD24D39402C0DD24D3948D2DDF91D7
S11304A0CF911F910F91FF90EF90DF90BF90AF908D
S11304B0089501979C0140E050E060EB71E78BE008
S11304C090E059D2832F992780BD29B98AB18861D8
S11304D08AB980B58E6880BD089510926F0010921D
S11304E06E0055DF40E860E186ED8CDF81110AC0C3
S11304F040E861E186ED86DF811104C044E062E1F9
S113050086ED80DF0895CF93DF9300D000D000D034
S1130510CDB7DEB726E030E0AE014F5F5F4F68E253
S113052086ED8ADF89819A819093710080937000AF
S11305308B819C8190936D0080936C008D819E8152
S1130540909373008093720026960FB6F894DEBFE2
S11305500FBECDBFDF91CF9108958F9A8AE090E0CE
S1130560979AE7E2F3E23197F1F700C00000979819
S1130570FFEB24ED31E0F15020403040E1F700C0C2
S11305800000019769F708958F9A8AE090E0979A9E
S1130590E3E9F1E13197F1F700C000009798FFEB30
S11305A024ED31E0F15020403040E1F700C000007C
S11305B0019769F708958091700090917100181661
S11305C0190614F520916C0030916D002817390735
S11305D0DCF4209172003091730028173907A4F4D9
S11305E08091620090916300A0916400B0916500D5
S11305F00196A11DB11D8093620090936300A093A6
S11306006400B093650009C0109262001092630008
S11306101092640010926500A0DF809162009091B6
S11306206300A0916400B091650081319742A105F7
S1130630B1050CF0A9DF0895FC0190819076903209
S1130640E1F48181813041F487E690E090938F005A
S113065080938E0084E00895823041F486E690E031
S113066090938F0080938E0081E008958A3039F44E
S113067083818093660080E0089580E0089580E09F
S113068008956BDF2ADF80E895E213DF9EE088E1BE
S11306900FB6F894A89581BD0FBE91BD5FD18A9A1B
S11306A08FEFA895E7EBFBE03197F1F700C000006E
S11306B08150B9F78A987894CFE7D0E024DF7BDFC4
S11306C0A8952BD0888184FFF9CF64E087E690E079
S11306D001D0F4CFCF93C62F20917F0024FF07C011
S11306E0EFE7F0E0318128E82327218303C02AE5DE
S11306F020937F002C2FE82FF92FA1E8B0E08191FF
S11307008D9321501216DCF36C2F81E890E001DD0B
S1130710CC5FC0937F00CF910895CF93DF938091F6
S1130720900083500AF4B4C090918C009D3209F07B
S1130730ADC0883009F0AAC080918D00CCE0D0E033
S1130740C81BD109CC56DF4F83EC809374008AE533
S11307508093610010926B008881807619F0CE013D
S11307606BDF8BC09A8110927D008981811106C054
S113077010927E002DE730E082E07BC0853031F4BA
S1130780909391002DE730E080E073C0863009F04B
S113079050C08B81813041F48CE790E090938F00BE
S11307A080938E0082E141C0823041F48AE590E07A
S11307B090938F0080938E0082E237C08330F1F4EF
S11307C0911108C08CEA90E090938F0080938E0082
S11307D084E02BC0913041F48AE990E090938F003B
S11307E080938E0082E121C09230E1F48EE890E0A3
S11307F090938F0080938E008CE017C0813241F477
S11308008CE690E090938F0080938E0089E00DC079
S1130810823251F486E290E090938F0080938E00B0
S113082084E303C080E001C080E090E490936B0017
S113083024C0883099F0893031F4909393002DE7E7
S113084030E080E016C08A3069F08B3079F48BE4B4
S1130850809380002DE730E080E00BC023E930E096
S113086081E007C02DE730E081E003C02DE730E0F0
S113087080E030938F0020938E009F81911104C0FB
S11308809E81981708F4892F80936000109290003D
S11308908091610084FF4BC0809160008F3F09F418
S11308A046C0C82F893008F0C8E08C1B80936000D4
S11308B0E4E7F0E0908188E889278083CC2309F479
S11308C044C020918E0030918F0080916B0086FF90
S11308D010C0A5E7B0E0F9018C2F94919D93319657
S11308E08150D9F78FEF8C0F90E00196280F391FB4
S11308F00EC0D901E5E7F0E08C2F9D9191938150D2
S1130900E1F78FEF8C0F90E00196280F391F309399
S11309108F0020938E006C2F85E790E0FADBCC5F8C
S1130920CC3018F48FEF80936000C093610080B3E3
S11309308C7089F493E180B38C7069F49150D9F789
S11309401092910010928B0006C06C2F85E790E006
S1130950E0DBCC5FE7CFDF91CF91089585B782606C
S113096085BF8BB780648BBFEFE7F0E08BE48183B6
S11309708AE580830895A1E21A2EAA1BBB1BFD0100
S11309800DC0AA1FBB1FEE1FFF1FA217B307E4076A
S1130990F50720F0A21BB30BE40BF50B661F771FC2
S11309A0881F991F1A9469F76095709580959095A2
S11109B09B01AC01BD01CF010895F894FFCF67
S10509BEFF5ADA
S9030000FC
