:1000000057C0BEC170C06FC06EC06DC06CC06BC049
:100010006AC069C068C067C066C065C064C063C0AC
:1000200062C061C060C009022200010100A00A098B
:100030000400000103000000092101010001223435
:100040000007058103080064120110010000000888
:10005000C016E8030001010200010C034D006F000F
:1000600075007300650012036F0062006400650094
:1000700076002E00610074000403090405010902E2
:10008000A1010901A1000509190129031500250194
:1000900095037501810295017505810305010930FC
:1000A000093109381581257F750895038106C0C07F
:1000B00011241FBECFE5D4E0DEBFCDBF11E0A0E626
:1000C000B0E0E0E3FCE002C005900D92AA36B10773
:1000D000D9F721E0AAE6B1E001C01D92A03BB2072A
:1000E000E1F700D5A3C58CCFCF93C62F20917D011A
:1000F00024FF07C030917E0128E8232720937E014A
:1001000003C02AE520937D01DC01EFE7F1E09C2F9D
:100110009E0F8D918193892F8E1B1816D4F36C2F0F
:100120008FE791E029D1CC5FC0937D01CF910895F5
:10013000CF93DF9380918E01835087FDA3C0909170
:100140008B0120918A012D3209F09AC0883009F084
:1001500097C0CCE0D0E0C91BD109CE56DE4F83EC6E
:10016000809372018AE58093610010926A01888110
:10017000807619F0CE0168D37AC09A8110927B0103
:100180008981811106C010927C012BE731E082E069
:100190006AC0853019F490938F0162C0863009F0EF
:1001A00049C08B81813019F488E490E01AC0823014
:1001B00041F486E290E090938D0180938C0182E27D
:1001C00035C08330F1F4911108C088E790E0909336
:1001D0008D0180938C0184E029C0913041F486E642
:1001E00090E090938D0180938C0182E11FC092304A
:1001F000E1F48AE590E090938D0180938C018CE08E
:1002000015C0813241F488E390E090938D01809392
:100210008C0189E00BC0823241F48CE790E090932E
:100220008D0180938C0184E301C080E090E4909381
:100230006A011DC0883069F0893019F490939101EA
:100240000FC08A3049F08B3059F48BE480937E01E3
:1002500007C021E931E002C02BE731E081E003C0B3
:100260002BE731E080E030938D0120938C019F815A
:10027000911104C09E81981708F4892F8093600023
:1002800010928E018091610084FF47C080916000D0
:100290008F3F09F442C0C82F893008F0C8E08C1B9A
:1002A000809360009091720188E8892780937201A1
:1002B000CC2339F180918C0190918D0120916A01BC
:1002C00026FF0BC0A3E7B1E0FC012C2F280F3491CF
:1002D0003D9331962E13FBCF09C0DC01E3E7F1E03B
:1002E0002C2F2E0F3D9131932E13FCCF2FEF2C0F7F
:1002F00030E02F5F3F4F820F931F90938D018093CB
:100300008C016C2F83E791E037D0CC5FCC3019F0B3
:100310008FEF80936000C093610084E190B39C7084
:1003200031F48150D9F710928F0110928901DF9139
:10033000CF91089585B7826085BF8BB780648BBFEE
:10034000EDE7F1E08BE481838AE580830895A82FAF
:10035000B92F80E090E041E050EA609530E009C0BC
:100360002D9182279795879510F084279527305EE9
:10037000C8F36F5FA8F30895EADF8D939D93089506
:10038000CF93CFB7CF93C395829BE9F7829B09C0E8
:10039000829B07C0829B05C0829B03C0829B01C0D9
:1003A000A3C0DF93C0918B01DD27CE56DE4F829B29
:1003B00002C0DF91EBCF2F930F931F9300B32FEF6A
:1003C00002FB20F94F933F9310B34FEF012702FB3D
:1003D00021F93BE031C04E7F012F10B3216028C0CE
:1003E000102F4D7F2260000000B329C04B7F246096
:1003F000012F000010B32BC010B3477F28602AC024
:100400004F7E00B320612CC04F7D10B320622FC0FF
:100410004F7B00B3206432C0422700B349934FEFB3
:100420000000102712FB20F910B31C70C9F1297FBE
:1004300091F2012702FB21F900B3237F89F23150A9
:1004400058F1102712FB22F910B3277E79F2012709
:1004500002FB23F92F7C81F200B3102712FB24F951
:100460002F7971F200C010B3012702FB25F92F7319
:1004700059F200C000B3102712FB26F9223040F2D7
:1004800000C010B3012702FB27F9243028F64F776C
:10049000206810B30000F9CF10E41ABF002719C07C
:1004A0003B503195C31BD04010E41ABF0881033C78
:1004B000F9F00B34E9F0209189011981110F121321
:1004C000EDCF4A81441F093641F10D3211F0013E52
:1004D00029F7009390013F914F911F910F912F9118
:1004E000DF91CAB7C6FD4FCFCF91CFBFCF9118953F
:1004F00020919001222379F310918E01112369F547
:1005000034306AF130938E0120938A0110918B016F
:100510003BE0311B30938B0122C000918E010130F2
:10052000E4F40AE54F7049F43091610034FD19C0DC
:1005300000936100C2E7D1E018C030917D0134FD25
:1005400010C000937D01CEE7D1E00FC02795A8F43D
:100550005150A9F4220F0000F9CF4AE503C042ED43
:1005600001C0432FC4E1D0E032E011B31C60929A85
:1005700011BB02B320E41CE05F93012756E002BBED
:10058000279520F4515021F4220FF9CF012756E08E
:1005900000003B5A02BBD0F2279528F4515029F4B1
:1005A000220F0000F9CF012756E0279502BB20F467
:1005B000515021F4220FF9CF012756E0299133231E
:1005C00002BB21F6037F10918F01110FC651D0405D
:1005D00002BB11F01093890110E41ABF046011B33B
:1005E000137F402F437F5F9100C000C002BB11BB4F
:1005F00042BB71CF01979C0140E050E060EB71E796
:100600008BE090E0BED2832F992780BD29B98AB1B3
:1006100088618AB980B58E6880BD08955D9BFECFE4
:100620008CB90895CF93DF93EC018991882311F061
:10063000F5DFFBCFDF91CF9108951092AB011092BF
:10064000AA0123D140E860E186ED57D181110AC0AB
:1006500040E861E186ED51D1811104C044E062E1DE
:1006600086ED4BC1089597FF03C09195819591093F
:100670000895CF93DF9300D000D000D0CDB7DEB780
:1006800026E030E0AE014F5F5F4F68E286EDE7D1D4
:1006900089819A819093AD018093AC018B819C817B
:1006A0009093A9018093A8018D819E819093AF01C1
:1006B0008093AE0126960FB6F894DEBF0FBECDBF75
:1006C000DF91CF9108958F9A8AE090E0979AE7E2C0
:1006D000F3E23197F1F700C000009798FFEB24EDAB
:1006E00031E0F15020403040E1F700C000000197B8
:1006F00069F708958F9A8AE090E0979AE3E9F1E12B
:100700003197F1F700C000009798FFEB24ED31E03E
:10071000F15020403040E1F700C00000019769F738
:100720000895CF93DF93CDB7DEB72A970FB6F8942D
:10073000DEBF0FBECDBF8EE491E074DF89E591E0AE
:1007400071DF4AE0BE016F5F7F4F8091AA019091F7
:10075000AB0139D267DF8FE591E064DF4AE0BE018B
:100760006F5F7F4F80916B0190916C012CD25ADFAB
:100770002091AC013091AD0137FF03C03195219537
:1007800031098091A8019091A90197FF03C091952B
:1007900081959109821793076CF4281B390B21323C
:1007A0003E441CF081E090E00FC01092AB0110922B
:1007B000AA010EC0281739075CF4821B930B813203
:1007C0009E449CF382E090E09093AB018093AA0159
:1007D00080916B0190916C01059729F48BDF109249
:1007E0006C0110926B0180916B0190916C012091D2
:1007F000AA013091AB01FC01EE0FFF1FEC5BFE4F35
:10080000408151814217530779F4019690936C010E
:1008100080936B018FE79FE422E18150904020405C
:10082000E1F700C0000007C0232B29F04CDF109235
:100830006C0110926B012A960FB6F894DEBF0FBEC2
:10084000CDBFDF91CF910895FC0180818076803209
:10085000D1F48181813041F48EE691E090938D0155
:1008600080938C0184E00895823041F48DE691E01C
:1008700090938D0180938C0181E008958A3019F462
:10088000838180936D0180E0089584E380B90895A9
:1008900016BE94EA96BF06B607FEFDCF91B1987FCB
:1008A000983011F081E0089583B984E886BF06B6D8
:1008B00007FEFDCF81B1887F883111F0803491F738
:1008C00080E0089583B984E886BF06B607FEFDCFB1
:1008D00091B1987F81E0983209F480E0089584EC2A
:1008E00086BF06B607FEFDCF83B1089584E886BFB4
:1008F00006B607FEFDCF83B108951F93CF93DF9314
:100900001F92CDB7DEB7142F6983C2DF69818823B8
:1009100011F081E00AC0862FD5DF8111FACF812F37
:10092000D1DF8111F6CF94E996BF0F90DF91CF917F
:100930001F910895CF92DF92EF92FF921F93CF9372
:10094000DF9300D0CDB7DEB77A0169837A83A0DF69
:10095000182F69817A8181110CC06B01EC0CFD1C90
:10096000CE14DF0441F0F60181916F01ABDF8823E3
:10097000B9F311E002C084E986BF812F0F900F9078
:10098000DF91CF911F91FF90EF90DF90CF9008956E
:10099000AF92BF92CF92DF92FF920F931F93CF93AC
:1009A000DF936B018A01816073DFF82E811115C01E
:1009B0005601E8012197C5018C199D098C179D07E7
:1009C00028F48DDFF50181935F01F5CFCC0DDD1D9E
:1009D0008DDF888384E986BF02C0FF24F3948F2DC6
:1009E000DF91CF911F910F91FF90DF90CF90BF903B
:1009F000AF900895AF92BF92DF92EF92FF920F9364
:100A00001F93CF93DF931F92CDB7DEB7D42E052F60
:100A1000790169833DDF182F6981882311F011E086
:100A200012C0862F4FDFAD2CB02EEA0CFB1CAE148B
:100A3000BF0439F0F50181915F0144DF8823B9F3E8
:100A4000EECF84E986BF812F0F90DF91CF911F9168
:100A50000F91FF90EF90DF90BF90AF900895AF920D
:100A6000BF92CF92DF92FF920F931F93CF93DF93AA
:100A70001F92CDB7DEB7F82E6A018901698308DFBE
:100A80006981882319F0FF24F3941DC0862F1ADF93
:100A90008F2D8160FDDEF82E8111F5CF56010150BA
:100AA0001109C5018C199D098017910728F417DFDA
:100AB000F50181935F01F5CFC00ED11E17DFF6015E
:100AC000808384E986BF8F2D0F90DF91CF911F9196
:100AD0000F91FF90DF90CF90BF90AF90089584E981
:100AE00086BF0895F0DDA9DD80E895E283DD9EE014
:100AF00088E10FB6F894A89581BD0FBE91BD1ADCB0
:100B00008A9A80E0815041F0A895E7EBFBE03197AD
:100B1000F1F700C00000F6CF8A987894AADD01DED4
:100B2000A89506DB80917D0184FFF8CF8091AA0112
:100B30009091AB018130910551F480916B01880F48
:100B4000982F990F990F890F80936F0113C08230EE
:100B5000910561F410926F0180916B01880F982FBD
:100B6000990F990F890F8093700106C0892B21F48A
:100B700010926F011092700164E08EE691E0B4DA99
:100B8000CDCFA1E21A2EAA1BBB1BFD010DC0AA1FCF
:100B9000BB1FEE1FFF1FA217B307E407F50720F0E6
:100BA000A21BB30BE40BF50B661F771F881F991F61
:100BB0001A9469F760957095809590959B01AC01AA
:100BC000BD01CF010895BB274A3031F4992322F4A7
:100BD000BDE2909581959F4F01C0BB27FB01552732
:100BE000AA27880F991FAA1FA41710F0A41B83958A
:100BF0005051B9F7A05DAA3308F0A95DA193009701
:100C000079F7B111B1931192CB0100C0DC01FC0165
:100C1000672F71917723E1F7329704C07C916D9330
:100C200070836291AE17BF07C8F30895F894FFCFA1
:100C3000FF5A68011400010005000000860105004C
:100C4000FFFF0F00000055001200FFFF050000002D
:100C50006801050001000E01000055001200FFFFB1
:100C60005A000000680105000100B40000005000B7
:100C70001200FFFFB4000000400105000100640005
:100C800000008C000500FFFFC9FF0000ECFF9CFF87
:100C9000000000000100050000000000000001004D
:100CA00034002300000000000100000005000000E7
:100CB00000000100D8FF3200000000000100910098
:100CC000050001001301000050001200FFFF130196
:100CD000000000000A0000000000010020000A00DF
:100CE0000000000001000000000000000000020001
:100CF00000000C00000000000100000000000000E7
:100D0000000002000200FF000001FF000200FF00DF
:100D100000FFFF00010002000100020001001B5B58
:100D2000324A1B5B313B3148006E756D3A20000D35
:0A0D30000A70617373633A2000003B
:00000001FF
